{
  "_format": "hh-sol-artifact-1",
  "contractName": "DrugNFT",
  "sourceName": "contracts/DrugNFT.sol",
  "abi": [
    {
      "inputs": [
        {
          "internalType": "address",
          "name": "_userAccessControl",
          "type": "address"
        }
      ],
      "stateMutability": "nonpayable",
      "type": "constructor"
    },
    {
      "inputs": [
        {
          "internalType": "address",
          "name": "sender",
          "type": "address"
        },
        {
          "internalType": "uint256",
          "name": "tokenId",
          "type": "uint256"
        },
        {
          "internalType": "address",
          "name": "owner",
          "type": "address"
        }
      ],
      "name": "ERC721IncorrectOwner",
      "type": "error"
    },
    {
      "inputs": [
        {
          "internalType": "address",
          "name": "operator",
          "type": "address"
        },
        {
          "internalType": "uint256",
          "name": "tokenId",
          "type": "uint256"
        }
      ],
      "name": "ERC721InsufficientApproval",
      "type": "error"
    },
    {
      "inputs": [
        {
          "internalType": "address",
          "name": "approver",
          "type": "address"
        }
      ],
      "name": "ERC721InvalidApprover",
      "type": "error"
    },
    {
      "inputs": [
        {
          "internalType": "address",
          "name": "operator",
          "type": "address"
        }
      ],
      "name": "ERC721InvalidOperator",
      "type": "error"
    },
    {
      "inputs": [
        {
          "internalType": "address",
          "name": "owner",
          "type": "address"
        }
      ],
      "name": "ERC721InvalidOwner",
      "type": "error"
    },
    {
      "inputs": [
        {
          "internalType": "address",
          "name": "receiver",
          "type": "address"
        }
      ],
      "name": "ERC721InvalidReceiver",
      "type": "error"
    },
    {
      "inputs": [
        {
          "internalType": "address",
          "name": "sender",
          "type": "address"
        }
      ],
      "name": "ERC721InvalidSender",
      "type": "error"
    },
    {
      "inputs": [
        {
          "internalType": "uint256",
          "name": "tokenId",
          "type": "uint256"
        }
      ],
      "name": "ERC721NonexistentToken",
      "type": "error"
    },
    {
      "anonymous": false,
      "inputs": [
        {
          "indexed": true,
          "internalType": "address",
          "name": "owner",
          "type": "address"
        },
        {
          "indexed": true,
          "internalType": "address",
          "name": "approved",
          "type": "address"
        },
        {
          "indexed": true,
          "internalType": "uint256",
          "name": "tokenId",
          "type": "uint256"
        }
      ],
      "name": "Approval",
      "type": "event"
    },
    {
      "anonymous": false,
      "inputs": [
        {
          "indexed": true,
          "internalType": "address",
          "name": "owner",
          "type": "address"
        },
        {
          "indexed": true,
          "internalType": "address",
          "name": "operator",
          "type": "address"
        },
        {
          "indexed": false,
          "internalType": "bool",
          "name": "approved",
          "type": "bool"
        }
      ],
      "name": "ApprovalForAll",
      "type": "event"
    },
    {
      "anonymous": false,
      "inputs": [
        {
          "indexed": false,
          "internalType": "uint256",
          "name": "_fromTokenId",
          "type": "uint256"
        },
        {
          "indexed": false,
          "internalType": "uint256",
          "name": "_toTokenId",
          "type": "uint256"
        }
      ],
      "name": "BatchMetadataUpdate",
      "type": "event"
    },
    {
      "anonymous": false,
      "inputs": [
        {
          "indexed": false,
          "internalType": "uint256",
          "name": "tokenId",
          "type": "uint256"
        },
        {
          "indexed": false,
          "internalType": "string",
          "name": "batchId",
          "type": "string"
        },
        {
          "indexed": false,
          "internalType": "bytes32",
          "name": "merkleRoot",
          "type": "bytes32"
        },
        {
          "indexed": false,
          "internalType": "string",
          "name": "metadataURI",
          "type": "string"
        },
        {
          "indexed": false,
          "internalType": "address",
          "name": "manufacturer",
          "type": "address"
        }
      ],
      "name": "BatchMinted",
      "type": "event"
    },
    {
      "anonymous": false,
      "inputs": [
        {
          "indexed": false,
          "internalType": "uint256",
          "name": "_tokenId",
          "type": "uint256"
        }
      ],
      "name": "MetadataUpdate",
      "type": "event"
    },
    {
      "anonymous": false,
      "inputs": [
        {
          "indexed": true,
          "internalType": "address",
          "name": "from",
          "type": "address"
        },
        {
          "indexed": true,
          "internalType": "address",
          "name": "to",
          "type": "address"
        },
        {
          "indexed": true,
          "internalType": "uint256",
          "name": "tokenId",
          "type": "uint256"
        }
      ],
      "name": "Transfer",
      "type": "event"
    },
    {
      "inputs": [
        {
          "internalType": "address",
          "name": "to",
          "type": "address"
        },
        {
          "internalType": "uint256",
          "name": "tokenId",
          "type": "uint256"
        }
      ],
      "name": "approve",
      "outputs": [],
      "stateMutability": "nonpayable",
      "type": "function"
    },
    {
      "inputs": [
        {
          "internalType": "address",
          "name": "owner",
          "type": "address"
        }
      ],
      "name": "balanceOf",
      "outputs": [
        {
          "internalType": "uint256",
          "name": "",
          "type": "uint256"
        }
      ],
      "stateMutability": "view",
      "type": "function"
    },
    {
      "inputs": [
        {
          "internalType": "uint256",
          "name": "",
          "type": "uint256"
        }
      ],
      "name": "batches",
      "outputs": [
        {
          "internalType": "bytes32",
          "name": "merkleRoot",
          "type": "bytes32"
        },
        {
          "internalType": "string",
          "name": "metadataURI",
          "type": "string"
        },
        {
          "internalType": "address",
          "name": "manufacturer",
          "type": "address"
        },
        {
          "internalType": "uint256",
          "name": "timestamp",
          "type": "uint256"
        }
      ],
      "stateMutability": "view",
      "type": "function"
    },
    {
      "inputs": [
        {
          "internalType": "uint256",
          "name": "tokenId",
          "type": "uint256"
        }
      ],
      "name": "getApproved",
      "outputs": [
        {
          "internalType": "address",
          "name": "",
          "type": "address"
        }
      ],
      "stateMutability": "view",
      "type": "function"
    },
    {
      "inputs": [
        {
          "internalType": "uint256",
          "name": "tokenId",
          "type": "uint256"
        }
      ],
      "name": "getBatch",
      "outputs": [
        {
          "components": [
            {
              "internalType": "bytes32",
              "name": "merkleRoot",
              "type": "bytes32"
            },
            {
              "internalType": "string",
              "name": "metadataURI",
              "type": "string"
            },
            {
              "internalType": "address",
              "name": "manufacturer",
              "type": "address"
            },
            {
              "internalType": "uint256",
              "name": "timestamp",
              "type": "uint256"
            }
          ],
          "internalType": "struct DrugNFT.Batch",
          "name": "",
          "type": "tuple"
        }
      ],
      "stateMutability": "view",
      "type": "function"
    },
    {
      "inputs": [
        {
          "internalType": "uint256",
          "name": "tokenId",
          "type": "uint256"
        }
      ],
      "name": "getBatchId",
      "outputs": [
        {
          "internalType": "string",
          "name": "",
          "type": "string"
        }
      ],
      "stateMutability": "view",
      "type": "function"
    },
    {
      "inputs": [
        {
          "internalType": "address",
          "name": "owner",
          "type": "address"
        },
        {
          "internalType": "address",
          "name": "operator",
          "type": "address"
        }
      ],
      "name": "isApprovedForAll",
      "outputs": [
        {
          "internalType": "bool",
          "name": "",
          "type": "bool"
        }
      ],
      "stateMutability": "view",
      "type": "function"
    },
    {
      "inputs": [
        {
          "internalType": "string",
          "name": "batchId",
          "type": "string"
        }
      ],
      "name": "isBatchExists",
      "outputs": [
        {
          "internalType": "bool",
          "name": "",
          "type": "bool"
        }
      ],
      "stateMutability": "view",
      "type": "function"
    },
    {
      "inputs": [
        {
          "internalType": "uint256",
          "name": "",
          "type": "uint256"
        }
      ],
      "name": "isBatchMinted",
      "outputs": [
        {
          "internalType": "bool",
          "name": "",
          "type": "bool"
        }
      ],
      "stateMutability": "view",
      "type": "function"
    },
    {
      "inputs": [
        {
          "internalType": "string",
          "name": "batchId",
          "type": "string"
        },
        {
          "internalType": "bytes32",
          "name": "merkleRoot",
          "type": "bytes32"
        },
        {
          "internalType": "string",
          "name": "metadataURI",
          "type": "string"
        }
      ],
      "name": "mintBatch",
      "outputs": [
        {
          "internalType": "uint256",
          "name": "",
          "type": "uint256"
        }
      ],
      "stateMutability": "nonpayable",
      "type": "function"
    },
    {
      "inputs": [],
      "name": "name",
      "outputs": [
        {
          "internalType": "string",
          "name": "",
          "type": "string"
        }
      ],
      "stateMutability": "view",
      "type": "function"
    },
    {
      "inputs": [
        {
          "internalType": "uint256",
          "name": "tokenId",
          "type": "uint256"
        }
      ],
      "name": "ownerOf",
      "outputs": [
        {
          "internalType": "address",
          "name": "",
          "type": "address"
        }
      ],
      "stateMutability": "view",
      "type": "function"
    },
    {
      "inputs": [
        {
          "internalType": "address",
          "name": "from",
          "type": "address"
        },
        {
          "internalType": "address",
          "name": "to",
          "type": "address"
        },
        {
          "internalType": "uint256",
          "name": "tokenId",
          "type": "uint256"
        }
      ],
      "name": "safeTransferFrom",
      "outputs": [],
      "stateMutability": "nonpayable",
      "type": "function"
    },
    {
      "inputs": [
        {
          "internalType": "address",
          "name": "from",
          "type": "address"
        },
        {
          "internalType": "address",
          "name": "to",
          "type": "address"
        },
        {
          "internalType": "uint256",
          "name": "tokenId",
          "type": "uint256"
        },
        {
          "internalType": "bytes",
          "name": "data",
          "type": "bytes"
        }
      ],
      "name": "safeTransferFrom",
      "outputs": [],
      "stateMutability": "nonpayable",
      "type": "function"
    },
    {
      "inputs": [
        {
          "internalType": "address",
          "name": "operator",
          "type": "address"
        },
        {
          "internalType": "bool",
          "name": "approved",
          "type": "bool"
        }
      ],
      "name": "setApprovalForAll",
      "outputs": [],
      "stateMutability": "nonpayable",
      "type": "function"
    },
    {
      "inputs": [
        {
          "internalType": "bytes4",
          "name": "interfaceId",
          "type": "bytes4"
        }
      ],
      "name": "supportsInterface",
      "outputs": [
        {
          "internalType": "bool",
          "name": "",
          "type": "bool"
        }
      ],
      "stateMutability": "view",
      "type": "function"
    },
    {
      "inputs": [],
      "name": "symbol",
      "outputs": [
        {
          "internalType": "string",
          "name": "",
          "type": "string"
        }
      ],
      "stateMutability": "view",
      "type": "function"
    },
    {
      "inputs": [
        {
          "internalType": "uint256",
          "name": "tokenId",
          "type": "uint256"
        }
      ],
      "name": "tokenURI",
      "outputs": [
        {
          "internalType": "string",
          "name": "",
          "type": "string"
        }
      ],
      "stateMutability": "view",
      "type": "function"
    },
    {
      "inputs": [
        {
          "internalType": "address",
          "name": "from",
          "type": "address"
        },
        {
          "internalType": "address",
          "name": "to",
          "type": "address"
        },
        {
          "internalType": "uint256",
          "name": "tokenId",
          "type": "uint256"
        }
      ],
      "name": "transferFrom",
      "outputs": [],
      "stateMutability": "nonpayable",
      "type": "function"
    },
    {
      "inputs": [],
      "name": "userAccessControl",
      "outputs": [
        {
          "internalType": "contract UserAccessControl",
          "name": "",
          "type": "address"
        }
      ],
      "stateMutability": "view",
      "type": "function"
    },
    {
      "inputs": [
        {
          "internalType": "uint256",
          "name": "tokenId",
          "type": "uint256"
        },
        {
          "internalType": "string",
          "name": "stripID",
          "type": "string"
        },
        {
          "internalType": "bytes32[]",
          "name": "proof",
          "type": "bytes32[]"
        }
      ],
      "name": "verifyStrip",
      "outputs": [
        {
          "internalType": "bool",
          "name": "",
          "type": "bool"
        }
      ],
      "stateMutability": "view",
      "type": "function"
    }
  ],
  "bytecode": "0x608060405234801561001057600080fd5b5060405161386f38038061386f8339818101604052810190610032919061016a565b6040518060400160405280600781526020017f447275674e4654000000000000000000000000000000000000000000000000008152506040518060400160405280600481526020017f445255470000000000000000000000000000000000000000000000000000000081525081600090816100ad91906103e7565b5080600190816100bd91906103e7565b50505080600760006101000a81548173ffffffffffffffffffffffffffffffffffffffff021916908373ffffffffffffffffffffffffffffffffffffffff160217905550506104b9565b600080fd5b600073ffffffffffffffffffffffffffffffffffffffff82169050919050565b60006101378261010c565b9050919050565b6101478161012c565b811461015257600080fd5b50565b6000815190506101648161013e565b92915050565b6000602082840312156101805761017f610107565b5b600061018e84828501610155565b91505092915050565b600081519050919050565b7f4e487b7100000000000000000000000000000000000000000000000000000000600052604160045260246000fd5b7f4e487b7100000000000000000000000000000000000000000000000000000000600052602260045260246000fd5b6000600282049050600182168061021857607f821691505b60208210810361022b5761022a6101d1565b5b50919050565b60008190508160005260206000209050919050565b60006020601f8301049050919050565b600082821b905092915050565b6000600883026102937fffffffffffffffffffffffffffffffffffffffffffffffffffffffffffffffff82610256565b61029d8683610256565b95508019841693508086168417925050509392505050565b6000819050919050565b6000819050919050565b60006102e46102df6102da846102b5565b6102bf565b6102b5565b9050919050565b6000819050919050565b6102fe836102c9565b61031261030a826102eb565b848454610263565b825550505050565b600090565b61032761031a565b6103328184846102f5565b505050565b5b818110156103565761034b60008261031f565b600181019050610338565b5050565b601f82111561039b5761036c81610231565b61037584610246565b81016020851015610384578190505b61039861039085610246565b830182610337565b50505b505050565b600082821c905092915050565b60006103be600019846008026103a0565b1980831691505092915050565b60006103d783836103ad565b9150826002028217905092915050565b6103f082610197565b67ffffffffffffffff811115610409576104086101a2565b5b6104138254610200565b61041e82828561035a565b600060209050601f831160018114610451576000841561043f578287015190505b61044985826103cb565b8655506104b1565b601f19841661045f86610231565b60005b8281101561048757848901518255600182019150602085019450602081019050610462565b868310156104a457848901516104a0601f8916826103ad565b8355505b6001600288020188555050505b505050505050565b6133a7806104c86000396000f3fe608060405234801561001057600080fd5b50600436106101375760003560e01c806370a08231116100b8578063ab6a7b9b1161007c578063ab6a7b9b14610398578063b32c4d8d146103c8578063b88d4fde146103fb578063c735c60414610417578063c87b56dd14610435578063e985e9c51461046557610137565b806370a08231146102ce57806378227cb0146102fe57806393d6509f1461032e57806395d89b411461035e578063a22cb4651461037c57610137565b8063374acb1b116100ff578063374acb1b146101f257806342842e0e1461022257806353a22f681461023e5780635ac442821461026e5780636352211e1461029e57610137565b806301ffc9a71461013c57806306fdde031461016c578063081812fc1461018a578063095ea7b3146101ba57806323b872dd146101d6575b600080fd5b6101566004803603810190610151919061224c565b610495565b6040516101639190612294565b60405180910390f35b6101746104f6565b604051610181919061233f565b60405180910390f35b6101a4600480360381019061019f9190612397565b610588565b6040516101b19190612405565b60405180910390f35b6101d460048036038101906101cf919061244c565b6105a4565b005b6101f060048036038101906101eb919061248c565b6105ba565b005b61020c60048036038101906102079190612614565b6106bc565b6040516102199190612294565b60405180910390f35b61023c6004803603810190610237919061248c565b610714565b005b610258600480360381019061025391906126bd565b610734565b6040516102659190612294565b60405180910390f35b61028860048036038101906102839190612397565b610982565b6040516102959190612831565b60405180910390f35b6102b860048036038101906102b39190612397565b610b0b565b6040516102c59190612405565b60405180910390f35b6102e860048036038101906102e39190612853565b610b1d565b6040516102f5919061288f565b60405180910390f35b61031860048036038101906103139190612397565b610bd7565b604051610325919061233f565b60405180910390f35b61034860048036038101906103439190612397565b610c68565b6040516103559190612294565b60405180910390f35b610366610c88565b604051610373919061233f565b60405180910390f35b610396600480360381019061039191906128d6565b610d1a565b005b6103b260048036038101906103ad9190612942565b610d30565b6040516103bf919061288f565b60405180910390f35b6103e260048036038101906103dd9190612397565b610f08565b6040516103f294939291906129dc565b60405180910390f35b61041560048036038101906104109190612ac9565b610fe0565b005b61041f611005565b60405161042c9190612bab565b60405180910390f35b61044f600480360381019061044a9190612397565b61102b565b60405161045c919061233f565b60405180910390f35b61047f600480360381019061047a9190612bc6565b61113e565b60405161048c9190612294565b60405180910390f35b6000634906490660e01b7bffffffffffffffffffffffffffffffffffffffffffffffffffffffff1916827bffffffffffffffffffffffffffffffffffffffffffffffffffffffff191614806104ef57506104ee826111d2565b5b9050919050565b60606000805461050590612c35565b80601f016020809104026020016040519081016040528092919081815260200182805461053190612c35565b801561057e5780601f106105535761010080835404028352916020019161057e565b820191906000526020600020905b81548152906001019060200180831161056157829003601f168201915b5050505050905090565b6000610593826112b4565b5061059d8261133c565b9050919050565b6105b682826105b1611379565b611381565b5050565b600073ffffffffffffffffffffffffffffffffffffffff168273ffffffffffffffffffffffffffffffffffffffff160361062c5760006040517f64a0ae920000000000000000000000000000000000000000000000000000000081526004016106239190612405565b60405180910390fd5b6000610640838361063b611379565b611393565b90508373ffffffffffffffffffffffffffffffffffffffff168173ffffffffffffffffffffffffffffffffffffffff16146106b6578382826040517f64283d7b0000000000000000000000000000000000000000000000000000000081526004016106ad93929190612c66565b60405180910390fd5b50505050565b600080826040516020016106d09190612cd9565b6040516020818303038152906040528051906020012060001c90506009600082815260200190815260200160002060009054906101000a900460ff16915050919050565b61072f83838360405180602001604052806000815250610fe0565b505050565b60006009600086815260200190815260200160002060009054906101000a900460ff16610796576040517f08c379a000000000000000000000000000000000000000000000000000000000815260040161078d90612d3c565b60405180910390fd5b600060086000878152602001908152602001600020604051806080016040529081600082015481526020016001820180546107d090612c35565b80601f01602080910402602001604051908101604052809291908181526020018280546107fc90612c35565b80156108495780601f1061081e57610100808354040283529160200191610849565b820191906000526020600020905b81548152906001019060200180831161082c57829003601f168201915b505050505081526020016002820160009054906101000a900473ffffffffffffffffffffffffffffffffffffffff1673ffffffffffffffffffffffffffffffffffffffff1673ffffffffffffffffffffffffffffffffffffffff16815260200160038201548152505090506000856040516020016108c79190612cd9565b6040516020818303038152906040528051906020012090506000610931868680806020026020016040519081016040528093929190818152602001838360200280828437600081840152601f19601f820116905080830192505050505050508460000151846115ad565b905080610973576040517f08c379a000000000000000000000000000000000000000000000000000000000815260040161096a90612da8565b60405180910390fd5b60019350505050949350505050565b61098a61219f565b6009600083815260200190815260200160002060009054906101000a900460ff166109ea576040517f08c379a00000000000000000000000000000000000000000000000000000000081526004016109e190612e14565b60405180910390fd5b6008600083815260200190815260200160002060405180608001604052908160008201548152602001600182018054610a2290612c35565b80601f0160208091040260200160405190810160405280929190818152602001828054610a4e90612c35565b8015610a9b5780601f10610a7057610100808354040283529160200191610a9b565b820191906000526020600020905b815481529060010190602001808311610a7e57829003601f168201915b505050505081526020016002820160009054906101000a900473ffffffffffffffffffffffffffffffffffffffff1673ffffffffffffffffffffffffffffffffffffffff1673ffffffffffffffffffffffffffffffffffffffff1681526020016003820154815250509050919050565b6000610b16826112b4565b9050919050565b60008073ffffffffffffffffffffffffffffffffffffffff168273ffffffffffffffffffffffffffffffffffffffff1603610b905760006040517f89c62b64000000000000000000000000000000000000000000000000000000008152600401610b879190612405565b60405180910390fd5b600360008373ffffffffffffffffffffffffffffffffffffffff1673ffffffffffffffffffffffffffffffffffffffff168152602001908152602001600020549050919050565b60606009600083815260200190815260200160002060009054906101000a900460ff16610c39576040517f08c379a0000000000000000000000000000000000000000000000000000000008152600401610c3090612e14565b60405180910390fd5b610c42826115c4565b604051602001610c529190612e80565b6040516020818303038152906040529050919050565b60096020528060005260406000206000915054906101000a900460ff1681565b606060018054610c9790612c35565b80601f0160208091040260200160405190810160405280929190818152602001828054610cc390612c35565b8015610d105780601f10610ce557610100808354040283529160200191610d10565b820191906000526020600020905b815481529060010190602001808311610cf357829003601f168201915b5050505050905090565b610d2c610d25611379565b8383611692565b5050565b60008084604051602001610d449190612cd9565b6040516020818303038152906040528051906020012060001c90506009600082815260200190815260200160002060009054906101000a900460ff1615610dc0576040517f08c379a0000000000000000000000000000000000000000000000000000000008152600401610db790612eee565b60405180910390fd5b610dca3382611801565b610dd4818461181f565b60405180608001604052808581526020018481526020013373ffffffffffffffffffffffffffffffffffffffff1681526020014281525060086000838152602001908152602001600020600082015181600001556020820151816001019081610e3d91906130b0565b5060408201518160020160006101000a81548173ffffffffffffffffffffffffffffffffffffffff021916908373ffffffffffffffffffffffffffffffffffffffff1602179055506060820151816003015590505060016009600083815260200190815260200160002060006101000a81548160ff0219169083151502179055507f6e2392af41f0345f7a77bff6c624cc3b5cbc1f0773ff08fb3c68c2c2def1dded8186868633604051610ef5959493929190613182565b60405180910390a1809150509392505050565b6008602052806000526040600020600091509050806000015490806001018054610f3190612c35565b80601f0160208091040260200160405190810160405280929190818152602001828054610f5d90612c35565b8015610faa5780601f10610f7f57610100808354040283529160200191610faa565b820191906000526020600020905b815481529060010190602001808311610f8d57829003601f168201915b5050505050908060020160009054906101000a900473ffffffffffffffffffffffffffffffffffffffff16908060030154905084565b610feb8484846105ba565b610fff610ff6611379565b8585858561187b565b50505050565b600760009054906101000a900473ffffffffffffffffffffffffffffffffffffffff1681565b6060611036826112b4565b50600060066000848152602001908152602001600020805461105790612c35565b80601f016020809104026020016040519081016040528092919081815260200182805461108390612c35565b80156110d05780601f106110a5576101008083540402835291602001916110d0565b820191906000526020600020905b8154815290600101906020018083116110b357829003601f168201915b5050505050905060006110e1611a2c565b905060008151036110f6578192505050611139565b60008251111561112b5780826040516020016111139291906131e3565b60405160208183030381529060405292505050611139565b61113484611a43565b925050505b919050565b6000600560008473ffffffffffffffffffffffffffffffffffffffff1673ffffffffffffffffffffffffffffffffffffffff16815260200190815260200160002060008373ffffffffffffffffffffffffffffffffffffffff1673ffffffffffffffffffffffffffffffffffffffff16815260200190815260200160002060009054906101000a900460ff16905092915050565b60007f80ac58cd000000000000000000000000000000000000000000000000000000007bffffffffffffffffffffffffffffffffffffffffffffffffffffffff1916827bffffffffffffffffffffffffffffffffffffffffffffffffffffffff1916148061129d57507f5b5e139f000000000000000000000000000000000000000000000000000000007bffffffffffffffffffffffffffffffffffffffffffffffffffffffff1916827bffffffffffffffffffffffffffffffffffffffffffffffffffffffff1916145b806112ad57506112ac82611aac565b5b9050919050565b6000806112c083611b16565b9050600073ffffffffffffffffffffffffffffffffffffffff168173ffffffffffffffffffffffffffffffffffffffff160361133357826040517f7e27328900000000000000000000000000000000000000000000000000000000815260040161132a919061288f565b60405180910390fd5b80915050919050565b60006004600083815260200190815260200160002060009054906101000a900473ffffffffffffffffffffffffffffffffffffffff169050919050565b600033905090565b61138e8383836001611b53565b505050565b60008061139f84611b16565b9050600073ffffffffffffffffffffffffffffffffffffffff168373ffffffffffffffffffffffffffffffffffffffff16146113e1576113e0818486611d18565b5b600073ffffffffffffffffffffffffffffffffffffffff168173ffffffffffffffffffffffffffffffffffffffff161461147257611423600085600080611b53565b6001600360008373ffffffffffffffffffffffffffffffffffffffff1673ffffffffffffffffffffffffffffffffffffffff168152602001908152602001600020600082825403925050819055505b600073ffffffffffffffffffffffffffffffffffffffff168573ffffffffffffffffffffffffffffffffffffffff16146114f5576001600360008773ffffffffffffffffffffffffffffffffffffffff1673ffffffffffffffffffffffffffffffffffffffff168152602001908152602001600020600082825401925050819055505b846002600086815260200190815260200160002060006101000a81548173ffffffffffffffffffffffffffffffffffffffff021916908373ffffffffffffffffffffffffffffffffffffffff160217905550838573ffffffffffffffffffffffffffffffffffffffff168273ffffffffffffffffffffffffffffffffffffffff167fddf252ad1be2c89b69c2b068fc378daa952ba7f163c4a11628f55a4df523b3ef60405160405180910390a4809150509392505050565b6000826115ba8584611ddc565b1490509392505050565b6060600060016115d384611e2c565b01905060008167ffffffffffffffff8111156115f2576115f16124e9565b5b6040519080825280601f01601f1916602001820160405280156116245781602001600182028036833780820191505090505b509050600082602001820190505b600115611687578080600190039150507f3031323334353637383961626364656600000000000000000000000000000000600a86061a8153600a858161167b5761167a613207565b5b04945060008503611632575b819350505050919050565b600073ffffffffffffffffffffffffffffffffffffffff168273ffffffffffffffffffffffffffffffffffffffff160361170357816040517f5b08ba180000000000000000000000000000000000000000000000000000000081526004016116fa9190612405565b60405180910390fd5b80600560008573ffffffffffffffffffffffffffffffffffffffff1673ffffffffffffffffffffffffffffffffffffffff16815260200190815260200160002060008473ffffffffffffffffffffffffffffffffffffffff1673ffffffffffffffffffffffffffffffffffffffff16815260200190815260200160002060006101000a81548160ff0219169083151502179055508173ffffffffffffffffffffffffffffffffffffffff168373ffffffffffffffffffffffffffffffffffffffff167f17307eab39ab6107e8899845ad3d59bd9653f200f220920489ca2b5937696c31836040516117f49190612294565b60405180910390a3505050565b61181b828260405180602001604052806000815250611f7f565b5050565b8060066000848152602001908152602001600020908161183f91906130b0565b507ff8e1a15aba9398e019f0b49df1a4fde98ee17ae345cb5f6b5e2c27f5033e8ce78260405161186f919061288f565b60405180910390a15050565b60008373ffffffffffffffffffffffffffffffffffffffff163b1115611a25578273ffffffffffffffffffffffffffffffffffffffff1663150b7a02868685856040518563ffffffff1660e01b81526004016118da949392919061328b565b6020604051808303816000875af192505050801561191657506040513d601f19601f8201168201806040525081019061191391906132ec565b60015b61199a573d8060008114611946576040519150601f19603f3d011682016040523d82523d6000602084013e61194b565b606091505b50600081510361199257836040517f64a0ae920000000000000000000000000000000000000000000000000000000081526004016119899190612405565b60405180910390fd5b805181602001fd5b63150b7a0260e01b7bffffffffffffffffffffffffffffffffffffffffffffffffffffffff1916817bffffffffffffffffffffffffffffffffffffffffffffffffffffffff191614611a2357836040517f64a0ae92000000000000000000000000000000000000000000000000000000008152600401611a1a9190612405565b60405180910390fd5b505b5050505050565b606060405180602001604052806000815250905090565b6060611a4e826112b4565b506000611a59611a2c565b90506000815111611a795760405180602001604052806000815250611aa4565b80611a83846115c4565b604051602001611a949291906131e3565b6040516020818303038152906040525b915050919050565b60007f01ffc9a7000000000000000000000000000000000000000000000000000000007bffffffffffffffffffffffffffffffffffffffffffffffffffffffff1916827bffffffffffffffffffffffffffffffffffffffffffffffffffffffff1916149050919050565b60006002600083815260200190815260200160002060009054906101000a900473ffffffffffffffffffffffffffffffffffffffff169050919050565b8080611b8c5750600073ffffffffffffffffffffffffffffffffffffffff168273ffffffffffffffffffffffffffffffffffffffff1614155b15611cc0576000611b9c846112b4565b9050600073ffffffffffffffffffffffffffffffffffffffff168373ffffffffffffffffffffffffffffffffffffffff1614158015611c0757508273ffffffffffffffffffffffffffffffffffffffff168173ffffffffffffffffffffffffffffffffffffffff1614155b8015611c1a5750611c18818461113e565b155b15611c5c57826040517fa9fbf51f000000000000000000000000000000000000000000000000000000008152600401611c539190612405565b60405180910390fd5b8115611cbe57838573ffffffffffffffffffffffffffffffffffffffff168273ffffffffffffffffffffffffffffffffffffffff167f8c5be1e5ebec7d5bd14f71427d1e84f3dd0314c0f7b2291e5b200ac8c7c3b92560405160405180910390a45b505b836004600085815260200190815260200160002060006101000a81548173ffffffffffffffffffffffffffffffffffffffff021916908373ffffffffffffffffffffffffffffffffffffffff16021790555050505050565b611d23838383611fa3565b611dd757600073ffffffffffffffffffffffffffffffffffffffff168373ffffffffffffffffffffffffffffffffffffffff1603611d9857806040517f7e273289000000000000000000000000000000000000000000000000000000008152600401611d8f919061288f565b60405180910390fd5b81816040517f177e802f000000000000000000000000000000000000000000000000000000008152600401611dce929190613319565b60405180910390fd5b505050565b60008082905060005b8451811015611e2157611e1282868381518110611e0557611e04613342565b5b6020026020010151612064565b91508080600101915050611de5565b508091505092915050565b600080600090507a184f03e93ff9f4daa797ed6e38ed64bf6a1f0100000000000000008310611e8a577a184f03e93ff9f4daa797ed6e38ed64bf6a1f0100000000000000008381611e8057611e7f613207565b5b0492506040810190505b6d04ee2d6d415b85acef81000000008310611ec7576d04ee2d6d415b85acef81000000008381611ebd57611ebc613207565b5b0492506020810190505b662386f26fc100008310611ef657662386f26fc100008381611eec57611eeb613207565b5b0492506010810190505b6305f5e1008310611f1f576305f5e1008381611f1557611f14613207565b5b0492506008810190505b6127108310611f44576127108381611f3a57611f39613207565b5b0492506004810190505b60648310611f675760648381611f5d57611f5c613207565b5b0492506002810190505b600a8310611f76576001810190505b80915050919050565b611f89838361208f565b611f9e611f94611379565b600085858561187b565b505050565b60008073ffffffffffffffffffffffffffffffffffffffff168373ffffffffffffffffffffffffffffffffffffffff161415801561205b57508273ffffffffffffffffffffffffffffffffffffffff168473ffffffffffffffffffffffffffffffffffffffff16148061201c575061201b848461113e565b5b8061205a57508273ffffffffffffffffffffffffffffffffffffffff166120428361133c565b73ffffffffffffffffffffffffffffffffffffffff16145b5b90509392505050565b600081831061207c576120778284612188565b612087565b6120868383612188565b5b905092915050565b600073ffffffffffffffffffffffffffffffffffffffff168273ffffffffffffffffffffffffffffffffffffffff16036121015760006040517f64a0ae920000000000000000000000000000000000000000000000000000000081526004016120f89190612405565b60405180910390fd5b600061210f83836000611393565b9050600073ffffffffffffffffffffffffffffffffffffffff168173ffffffffffffffffffffffffffffffffffffffff16146121835760006040517f73c6ac6e00000000000000000000000000000000000000000000000000000000815260040161217a9190612405565b60405180910390fd5b505050565b600082600052816020526040600020905092915050565b60405180608001604052806000801916815260200160608152602001600073ffffffffffffffffffffffffffffffffffffffff168152602001600081525090565b6000604051905090565b600080fd5b600080fd5b60007fffffffff0000000000000000000000000000000000000000000000000000000082169050919050565b612229816121f4565b811461223457600080fd5b50565b60008135905061224681612220565b92915050565b600060208284031215612262576122616121ea565b5b600061227084828501612237565b91505092915050565b60008115159050919050565b61228e81612279565b82525050565b60006020820190506122a96000830184612285565b92915050565b600081519050919050565b600082825260208201905092915050565b60005b838110156122e95780820151818401526020810190506122ce565b60008484015250505050565b6000601f19601f8301169050919050565b6000612311826122af565b61231b81856122ba565b935061232b8185602086016122cb565b612334816122f5565b840191505092915050565b600060208201905081810360008301526123598184612306565b905092915050565b6000819050919050565b61237481612361565b811461237f57600080fd5b50565b6000813590506123918161236b565b92915050565b6000602082840312156123ad576123ac6121ea565b5b60006123bb84828501612382565b91505092915050565b600073ffffffffffffffffffffffffffffffffffffffff82169050919050565b60006123ef826123c4565b9050919050565b6123ff816123e4565b82525050565b600060208201905061241a60008301846123f6565b92915050565b612429816123e4565b811461243457600080fd5b50565b60008135905061244681612420565b92915050565b60008060408385031215612463576124626121ea565b5b600061247185828601612437565b925050602061248285828601612382565b9150509250929050565b6000806000606084860312156124a5576124a46121ea565b5b60006124b386828701612437565b93505060206124c486828701612437565b92505060406124d586828701612382565b9150509250925092565b600080fd5b600080fd5b7f4e487b7100000000000000000000000000000000000000000000000000000000600052604160045260246000fd5b612521826122f5565b810181811067ffffffffffffffff821117156125405761253f6124e9565b5b80604052505050565b60006125536121e0565b905061255f8282612518565b919050565b600067ffffffffffffffff82111561257f5761257e6124e9565b5b612588826122f5565b9050602081019050919050565b82818337600083830152505050565b60006125b76125b284612564565b612549565b9050828152602081018484840111156125d3576125d26124e4565b5b6125de848285612595565b509392505050565b600082601f8301126125fb576125fa6124df565b5b813561260b8482602086016125a4565b91505092915050565b60006020828403121561262a576126296121ea565b5b600082013567ffffffffffffffff811115612648576126476121ef565b5b612654848285016125e6565b91505092915050565b600080fd5b600080fd5b60008083601f84011261267d5761267c6124df565b5b8235905067ffffffffffffffff81111561269a5761269961265d565b5b6020830191508360208202830111156126b6576126b5612662565b5b9250929050565b600080600080606085870312156126d7576126d66121ea565b5b60006126e587828801612382565b945050602085013567ffffffffffffffff811115612706576127056121ef565b5b612712878288016125e6565b935050604085013567ffffffffffffffff811115612733576127326121ef565b5b61273f87828801612667565b925092505092959194509250565b6000819050919050565b6127608161274d565b82525050565b600082825260208201905092915050565b6000612782826122af565b61278c8185612766565b935061279c8185602086016122cb565b6127a5816122f5565b840191505092915050565b6127b9816123e4565b82525050565b6127c881612361565b82525050565b60006080830160008301516127e66000860182612757565b50602083015184820360208601526127fe8282612777565b915050604083015161281360408601826127b0565b50606083015161282660608601826127bf565b508091505092915050565b6000602082019050818103600083015261284b81846127ce565b905092915050565b600060208284031215612869576128686121ea565b5b600061287784828501612437565b91505092915050565b61288981612361565b82525050565b60006020820190506128a46000830184612880565b92915050565b6128b381612279565b81146128be57600080fd5b50565b6000813590506128d0816128aa565b92915050565b600080604083850312156128ed576128ec6121ea565b5b60006128fb85828601612437565b925050602061290c858286016128c1565b9150509250929050565b61291f8161274d565b811461292a57600080fd5b50565b60008135905061293c81612916565b92915050565b60008060006060848603121561295b5761295a6121ea565b5b600084013567ffffffffffffffff811115612979576129786121ef565b5b612985868287016125e6565b93505060206129968682870161292d565b925050604084013567ffffffffffffffff8111156129b7576129b66121ef565b5b6129c3868287016125e6565b9150509250925092565b6129d68161274d565b82525050565b60006080820190506129f160008301876129cd565b8181036020830152612a038186612306565b9050612a1260408301856123f6565b612a1f6060830184612880565b95945050505050565b600067ffffffffffffffff821115612a4357612a426124e9565b5b612a4c826122f5565b9050602081019050919050565b6000612a6c612a6784612a28565b612549565b905082815260208101848484011115612a8857612a876124e4565b5b612a93848285612595565b509392505050565b600082601f830112612ab057612aaf6124df565b5b8135612ac0848260208601612a59565b91505092915050565b60008060008060808587031215612ae357612ae26121ea565b5b6000612af187828801612437565b9450506020612b0287828801612437565b9350506040612b1387828801612382565b925050606085013567ffffffffffffffff811115612b3457612b336121ef565b5b612b4087828801612a9b565b91505092959194509250565b6000819050919050565b6000612b71612b6c612b67846123c4565b612b4c565b6123c4565b9050919050565b6000612b8382612b56565b9050919050565b6000612b9582612b78565b9050919050565b612ba581612b8a565b82525050565b6000602082019050612bc06000830184612b9c565b92915050565b60008060408385031215612bdd57612bdc6121ea565b5b6000612beb85828601612437565b9250506020612bfc85828601612437565b9150509250929050565b7f4e487b7100000000000000000000000000000000000000000000000000000000600052602260045260246000fd5b60006002820490506001821680612c4d57607f821691505b602082108103612c6057612c5f612c06565b5b50919050565b6000606082019050612c7b60008301866123f6565b612c886020830185612880565b612c9560408301846123f6565b949350505050565b600081905092915050565b6000612cb3826122af565b612cbd8185612c9d565b9350612ccd8185602086016122cb565b80840191505092915050565b6000612ce58284612ca8565b915081905092915050565b7f4261746368206e6f7420666f756e640000000000000000000000000000000000600082015250565b6000612d26600f836122ba565b9150612d3182612cf0565b602082019050919050565b60006020820190508181036000830152612d5581612d19565b9050919050565b7f496e76616c6964204d65726b6c652050726f6f66000000000000000000000000600082015250565b6000612d926014836122ba565b9150612d9d82612d5c565b602082019050919050565b60006020820190508181036000830152612dc181612d85565b9050919050565b7f426174636820646f6573206e6f74206578697374000000000000000000000000600082015250565b6000612dfe6014836122ba565b9150612e0982612dc8565b602082019050919050565b60006020820190508181036000830152612e2d81612df1565b9050919050565b7f42617463682049443a2000000000000000000000000000000000000000000000600082015250565b6000612e6a600a83612c9d565b9150612e7582612e34565b600a82019050919050565b6000612e8b82612e5d565b9150612e978284612ca8565b915081905092915050565b7f426174636820616c726561647920657869737473000000000000000000000000600082015250565b6000612ed86014836122ba565b9150612ee382612ea2565b602082019050919050565b60006020820190508181036000830152612f0781612ecb565b9050919050565b60008190508160005260206000209050919050565b60006020601f8301049050919050565b600082821b905092915050565b600060088302612f707fffffffffffffffffffffffffffffffffffffffffffffffffffffffffffffffff82612f33565b612f7a8683612f33565b95508019841693508086168417925050509392505050565b6000612fad612fa8612fa384612361565b612b4c565b612361565b9050919050565b6000819050919050565b612fc783612f92565b612fdb612fd382612fb4565b848454612f40565b825550505050565b600090565b612ff0612fe3565b612ffb818484612fbe565b505050565b5b8181101561301f57613014600082612fe8565b600181019050613001565b5050565b601f8211156130645761303581612f0e565b61303e84612f23565b8101602085101561304d578190505b61306161305985612f23565b830182613000565b50505b505050565b600082821c905092915050565b600061308760001984600802613069565b1980831691505092915050565b60006130a08383613076565b9150826002028217905092915050565b6130b9826122af565b67ffffffffffffffff8111156130d2576130d16124e9565b5b6130dc8254612c35565b6130e7828285613023565b600060209050601f83116001811461311a5760008415613108578287015190505b6131128582613094565b86555061317a565b601f19841661312886612f0e565b60005b828110156131505784890151825560018201915060208501945060208101905061312b565b8683101561316d5784890151613169601f891682613076565b8355505b6001600288020188555050505b505050505050565b600060a0820190506131976000830188612880565b81810360208301526131a98187612306565b90506131b860408301866129cd565b81810360608301526131ca8185612306565b90506131d960808301846123f6565b9695505050505050565b60006131ef8285612ca8565b91506131fb8284612ca8565b91508190509392505050565b7f4e487b7100000000000000000000000000000000000000000000000000000000600052601260045260246000fd5b600081519050919050565b600082825260208201905092915050565b600061325d82613236565b6132678185613241565b93506132778185602086016122cb565b613280816122f5565b840191505092915050565b60006080820190506132a060008301876123f6565b6132ad60208301866123f6565b6132ba6040830185612880565b81810360608301526132cc8184613252565b905095945050505050565b6000815190506132e681612220565b92915050565b600060208284031215613302576133016121ea565b5b6000613310848285016132d7565b91505092915050565b600060408201905061332e60008301856123f6565b61333b6020830184612880565b9392505050565b7f4e487b7100000000000000000000000000000000000000000000000000000000600052603260045260246000fdfea264697066735822122065e8791f5b449c339afbf031c878b6110588aba65b3bceafe64010d0c952771e64736f6c634300081c0033",
  "linkReferences": {},
  "deployedLinkReferences": {}
}